:100000000C942A000C9434000C9434000C943400AA
:100010000C9434000C9434000C9434000C94340090
:100020000C9434000C9434000C9434000C94340080
:100030000C9434000C9434000C9434000C94340070
:100040000C9434000C9434000C9434000C94340060
:100050000C94340011241FBECFE5D8E0DEBFCDBF25
:100060000E9401010C940B010C9400008230E9F015
:1000700070F4811531F181E001C0880F6A95EAF7CB
:1000800097B3413059F18095892387BB0895833018
:1000900021F581E001C0880F6A95EAF791B34130FC
:1000A00001F18095892381BB089581E001C0880F0B
:1000B0006A95EAF794B34130D1F08095892384BBE7
:1000C000089581E001C0880F6A95EAF79AB341303C
:1000D00059F0809589238ABB08950895892B87BBA1
:1000E0000895892B81BB0895892B8ABB0895892B9C
:1000F00084BB08958230B9F058F48115E9F086B3D5
:1001000090E002C0959587956A95E2F78170089511
:100110008330D9F480B390E002C0959587956A95B5
:10012000E2F78170089583B390E002C095958795BA
:100130006A95E2F78170089589B390E002C09595C1
:1001400087956A95E2F78170089580E0089582307E
:10015000D9F068F4811519F181E001C0880F6A9522
:10016000EAF798B3411599F1892B88BB089583303C
:1001700069F581E001C0880F6A95EAF792B34115ED
:1001800009F1892B82BB089581E001C0880F6A952F
:10019000EAF795B3411591F0892B85BB089581E06D
:1001A00001C0880F6A95EAF79BB3411519F0892BB6
:1001B0008BBB0895809589238BBB089580958923F7
:1001C00085BB08958095892382BB08950895809505
:1001D000892388BB089541E00C943600413021F01A
:1001E000423009F0089540E00C94A700413019F026
:1001F000423021F0089540E00C94A70041E00C94B7
:10020000A70060E080E00E94EB0042E060E080E058
:0A0210000E94EE00FACFF894FFCF31
:00000001FF
