:100000000C942A000C943F000C943F000C943F0089
:100010000C943F000C943F000C943F000C943F0064
:100020000C943F000C943F000C943F000C943F0054
:100030000C943F000C943F000C943F000C943F0044
:100040000C943F000C943F000C943F000C943F0034
:100050000C943F0011241FBECFE5D8E0DEBFCDBF1A
:1000600010E0A0E6B0E0E4EDF1E002C005900D92F2
:10007000AC36B107D9F70E94E0000C94E8000C946C
:100080000000823059F028F4811559F08FEF87BBBA
:100090000895833049F48FEF81BB08958FEF84BBBF
:1000A00008958FEF8ABB08950895CF93DF93CDB75E
:1000B000DEB72A970FB6F894DEBF0FBECDBF9AE029
:1000C000E0E6F0E0DE01119601900D929A95E1F7DD
:1000D0008230D9F088F48115F9F0FE013196E60FEF
:1000E000F11D808188BB2A960FB6F894DEBF0FBE43
:1000F000CDBFDF91CF9108958330A9F7FE013196EE
:10010000E60FF11D808182BBEECFFE013196E60F36
:10011000F11D808185BBE7CFFE013196E60FF11D11
:1001200080818BBBE0CFCF93DF93CDB7DEB72A972B
:100130000FB6F894DEBF0FBECDBF4617A8F437C088
:10014000811571F1FE013196E60FF11D908198BB8A
:100150002FEF39E698E1215030409040E1F700C0A0
:1001600000006F5F461718F19AE0E0E6F0E0DE016C
:10017000119601900D929A95E1F7823051F000F3BB
:10018000833031F7FE013196E60FF11D908192BB6D
:10019000DFCFFE013196E60FF11D908195BBD8CFE0
:1001A000FE013196E60FF11D90819BBBD1CF2A96BF
:1001B0000FB6F894DEBF0FBECDBFDF91CF9108958B
:1001C00080E00E94410049E060E080E00C949300F0
:0401D000F894FFCFD1
:0C01D4003F065B4F666D7D077F6F0000EB
:00000001FF
