:100000000C942A000C943F000C943F000C943F0089
:100010000C943F000C943F000C943F000C943F0064
:100020000C943F000C943F000C943F000C943F0054
:100030000C943F000C943F000C943F000C943F0044
:100040000C943F000C943F000C943F000C943F0034
:100050000C943F0011241FBECFE5D8E0DEBFCDBF1A
:1000600010E0A0E6B0E0E4EDF1E002C005900D92F2
:10007000AC36B107D9F70E94E0000C94E8000C946C
:100080000000823069F030F4811571F08FEF87BB8A
:1000900084BB0895833061F48FEF81BB8ABB0895E0
:1000A0008FEF84BB81BB08958FEF8ABB87BB089518
:1000B0000895CF93DF93CDB7DEB72A970FB6F894A4
:1000C000DEBF0FBECDBF9AE0E0E6F0E0DE011196A4
:1000D00001900D929A95E1F79DEC699F912D112465
:1000E000969596959695292F220F220F290F220F6C
:1000F000621B823039F1B8F4811589F1FE01319625
:10010000E90FF11D808188BBFE013196E60FF11DDC
:10011000808185BB2A960FB6F894DEBF0FBECDBF97
:10012000DF91CF9108958330A9F7FE013196E90F51
:10013000F11D808182BBFE013196E60FF11D8081A9
:100140008BBBE8CFFE013196E90FF11D808185BBA5
:10015000FE013196E60FF11D808182BBDBCFFE01EF
:100160003196E90FF11D80818BBBFE013196E60FC0
:10017000F11D808188BBCECFCF93DF9300D00F924B
:10018000CDB7DEB789836A834B83461798F06A81BF
:1001900089810E9459002FEB8CE595E12150804028
:1001A0009040E1F700C000002A812F5F2A838B81F5
:1001B000821768F70F900F900F90DF91CF910895FD
:1001C00080E00E94410049E060E080E00C94BC00C7
:0401D000F894FFCFD1
:0C01D4003F065B4F666D7D077F6F0000EB
:00000001FF
