:100000000C942A000C9434000C9434000C943400AA
:100010000C9434000C9434000C9434000C94340090
:100020000C9434000C9434000C9434000C94340080
:100030000C9434000C9434000C9434000C94340070
:100040000C9434000C9434000C9434000C94340060
:100050000C94340011241FBECFE5D8E0DEBFCDBF25
:100060000E9436000C943F000C940000D198D29A64
:10007000C99B03C0DA98C999FDCFDA9AF9CFF894F1
:02008000FFCFB0
:00000001FF
