:100000000C942A000C9434000C9434000C943400AA
:100010000C9434000C9434000C9434000C94340090
:100020000C9434000C9434000C9434000C94340080
:100030000C9434000C9434000C9434000C94340070
:100040000C9434000C9434000C9434000C94340060
:100050000C94340011241FBECFE5D8E0DEBFCDBF25
:100060000E94BC000C94FB000C940000823049F00C
:1000700020F4811541F067BB0895833031F461BBF2
:10008000089564BB08956ABB08950895823049F0CD
:1000900020F4811541F068BB0895833031F462BBD0
:1000A000089565BB08956BBB08950895413079F0BC
:1000B0008230E1F1D0F4811521F128B381E001C053
:1000C000880F6A95EAF78095822388BB089582306D
:1000D000B9F108F58115E9F188B321E001C0220FDB
:1000E0006A95EAF7822B88BB08958330D9F522B34D
:1000F00081E001C0880F6A95EAF78095822382BB70
:1001000008952BB381E001C0880F6A95EAF78095C6
:1001100082238BBB0895833031F582B321E001C087
:10012000220F6A95EAF7822B82BB089525B381E0FE
:1001300001C0880F6A95EAF78095822385BB0895F0
:1001400085B321E001C0220F6A95EAF7822B85BBB7
:1001500008958BB321E001C0220F6A95EAF7822B44
:100160008BBB0895089508956FEF0C94360040E01E
:100170000C9456000C94460080E00E94B4006FEF8F
:1001800080E00E94BA002FEF83ED90E32150804081
:100190009040E1F700C00000C0E06C2F80E00E94BA
:1001A000B7002FEF89E698E1215080409040E1F7B9
:1001B00000C00000CF5FC83081F7C5E06FEF80E07E
:1001C0000E94BA002FEF84E39CE0215080409040D1
:1001D000E1F700C0000060E080E00E94BA002FEF6D
:1001E00084E39CE0215080409040E1F700C0000093
:0A01F000C15021F7C4CFF894FFCFEF
:00000001FF
