:100000000C942A000C943F000C943F000C943F0089
:100010000C943F000C943F000C943F000C943F0064
:100020000C943F000C943F000C943F000C943F0054
:100030000C943F000C943F000C943F000C943F0044
:100040000C943F000C943F000C943F000C943F0034
:100050000C943F0011241FBECFE5D8E0DEBFCDBF1A
:1000600010E0A0E6B0E0E0E8F3E002C005900D92F9
:10007000AC36B107D9F70E9404010C94BE010C9470
:1000800000008230E9F070F4811531F181E001C0A7
:10009000880F6A95EAF797B3413059F18095892323
:1000A00087BB0895833021F581E001C0880F6A95F0
:1000B000EAF791B3413001F18095892381BB08951E
:1000C00081E001C0880F6A95EAF794B34130D1F01E
:1000D0008095892384BB089581E001C0880F6A95CB
:1000E000EAF79AB3413059F0809589238ABB089585
:1000F0000895892B87BB0895892B81BB0895892B8F
:100100008ABB0895892B84BB08958230B9F058F4D6
:100110008115E9F086B390E002C0959587956A95C0
:10012000E2F7817008958330D9F480B390E002C083
:10013000959587956A95E2F78170089583B390E06D
:1001400002C0959587956A95E2F78170089589B305
:1001500090E002C0959587956A95E2F781700895C1
:1001600080E00895823059F028F4811559F08FEF1E
:1001700087BB0895833049F48FEF81BB08958FEFDB
:1001800084BB08958FEF8ABB08950895CF93DF93C2
:10019000CDB7DEB72A970FB6F894DEBF0FBECDBF3E
:1001A0009AE0E0E6F0E0DE01119601900D929A955A
:1001B000E1F78230D9F088F48115F9F0FE0131962B
:1001C000E60FF11D808188BB2A960FB6F894DEBF3A
:1001D0000FBECDBFDF91CF9108958330A9F7FE0107
:1001E0003196E60FF11D808182BBEECFFE01319684
:1001F000E60FF11D808185BBE7CFFE013196E60F4A
:10020000F11D80818BBBE0CFCDB7DEB72A970FB64B
:10021000F894DEBF0FBECDBF8FEF8ABB40E060E039
:1002200081E00E94410040E061E081E00E944100E5
:1002300010E060E081E00E948500813011F5193006
:1002400009F453C01F5F8AE0E0E6F0E0DE0111969A
:1002500001900D928A95E1F7FE013196E10FF11DB3
:1002600080818BBB2FEF89E698E121508040904040
:10027000E1F700C0000060E081E00E94850081306D
:10028000F1F261E081E00E948500813091F61A3040
:1002900008F04EC0111509F45AC011508AE0E0E68A
:1002A000F0E0DE01119601900D928A95E1F7FE01D2
:1002B0003196E10FF11D80818BBB2FEF89E698E12C
:1002C000215080409040E1F700C0000060E081E0F4
:1002D0000E948500813009F4B5CF61E081E00E9481
:1002E0008500813009F0A5CFD2CF61E081E00E9486
:1002F0008500813069F060E081E00E9485008130F6
:1003000009F0BFCF61E081E00E948500813099F75C
:1003100060E081E00E94850018E0813009F492CF0E
:1003200061E081E00E948500813009F082CFAFCF8B
:1003300060E081E00E948500813009F483CF61E0B4
:1003400081E00E948500813009F073CFF1CF60E039
:1003500081E00E94850011E0813009F010E060E04A
:1003600081E00E948500813009F46CCF61E081E07A
:100370000E948500813009F05CCF8CCFF894FFCFCC
:0C0380003F065B4F666D7D077F6F00003D
:00000001FF
